{
  "_format": "hh-sol-artifact-1",
  "contractName": "MoonHuntersFeeProxy",
  "sourceName": "src/MoonHuntersFeeProxy.sol",
  "abi": [
    {
      "inputs": [
        {
          "internalType": "address",
          "name": "_treasury",
          "type": "address"
        },
        {
          "internalType": "address",
          "name": "_usdtAddress",
          "type": "address"
        },
        {
          "internalType": "address",
          "name": "_oneInchRouter",
          "type": "address"
        },
        {
          "internalType": "uint256",
          "name": "_feePercent",
          "type": "uint256"
        }
      ],
      "stateMutability": "nonpayable",
      "type": "constructor"
    },
    {
      "inputs": [
        {
          "internalType": "address",
          "name": "owner",
          "type": "address"
        }
      ],
      "name": "OwnableInvalidOwner",
      "type": "error"
    },
    {
      "inputs": [
        {
          "internalType": "address",
          "name": "account",
          "type": "address"
        }
      ],
      "name": "OwnableUnauthorizedAccount",
      "type": "error"
    },
    {
      "inputs": [],
      "name": "ReentrancyGuardReentrantCall",
      "type": "error"
    },
    {
      "inputs": [
        {
          "internalType": "address",
          "name": "token",
          "type": "address"
        }
      ],
      "name": "SafeERC20FailedOperation",
      "type": "error"
    },
    {
      "anonymous": false,
      "inputs": [
        {
          "indexed": true,
          "internalType": "address",
          "name": "user",
          "type": "address"
        },
        {
          "indexed": true,
          "internalType": "address",
          "name": "token",
          "type": "address"
        },
        {
          "indexed": false,
          "internalType": "uint256",
          "name": "amountIn",
          "type": "uint256"
        },
        {
          "indexed": false,
          "internalType": "uint256",
          "name": "amountOut",
          "type": "uint256"
        },
        {
          "indexed": false,
          "internalType": "uint256",
          "name": "fee",
          "type": "uint256"
        }
      ],
      "name": "BuyExecuted",
      "type": "event"
    },
    {
      "anonymous": false,
      "inputs": [
        {
          "indexed": true,
          "internalType": "address",
          "name": "token",
          "type": "address"
        },
        {
          "indexed": false,
          "internalType": "uint256",
          "name": "amount",
          "type": "uint256"
        }
      ],
      "name": "FeeCollected",
      "type": "event"
    },
    {
      "anonymous": false,
      "inputs": [
        {
          "indexed": false,
          "internalType": "uint256",
          "name": "oldFee",
          "type": "uint256"
        },
        {
          "indexed": false,
          "internalType": "uint256",
          "name": "newFee",
          "type": "uint256"
        }
      ],
      "name": "FeeUpdated",
      "type": "event"
    },
    {
      "anonymous": false,
      "inputs": [
        {
          "indexed": true,
          "internalType": "address",
          "name": "previousOwner",
          "type": "address"
        },
        {
          "indexed": true,
          "internalType": "address",
          "name": "newOwner",
          "type": "address"
        }
      ],
      "name": "OwnershipTransferred",
      "type": "event"
    },
    {
      "anonymous": false,
      "inputs": [
        {
          "indexed": true,
          "internalType": "address",
          "name": "by",
          "type": "address"
        }
      ],
      "name": "Paused",
      "type": "event"
    },
    {
      "anonymous": false,
      "inputs": [
        {
          "indexed": true,
          "internalType": "address",
          "name": "user",
          "type": "address"
        },
        {
          "indexed": true,
          "internalType": "address",
          "name": "token",
          "type": "address"
        },
        {
          "indexed": false,
          "internalType": "uint256",
          "name": "amountIn",
          "type": "uint256"
        },
        {
          "indexed": false,
          "internalType": "uint256",
          "name": "amountOut",
          "type": "uint256"
        },
        {
          "indexed": false,
          "internalType": "uint256",
          "name": "fee",
          "type": "uint256"
        }
      ],
      "name": "SellExecuted",
      "type": "event"
    },
    {
      "anonymous": false,
      "inputs": [
        {
          "indexed": true,
          "internalType": "address",
          "name": "oldTreasury",
          "type": "address"
        },
        {
          "indexed": true,
          "internalType": "address",
          "name": "newTreasury",
          "type": "address"
        }
      ],
      "name": "TreasuryUpdated",
      "type": "event"
    },
    {
      "anonymous": false,
      "inputs": [
        {
          "indexed": true,
          "internalType": "address",
          "name": "by",
          "type": "address"
        }
      ],
      "name": "Unpaused",
      "type": "event"
    },
    {
      "inputs": [],
      "name": "FEE_DENOMINATOR",
      "outputs": [
        {
          "internalType": "uint256",
          "name": "",
          "type": "uint256"
        }
      ],
      "stateMutability": "view",
      "type": "function"
    },
    {
      "inputs": [],
      "name": "MAX_FEE",
      "outputs": [
        {
          "internalType": "uint256",
          "name": "",
          "type": "uint256"
        }
      ],
      "stateMutability": "view",
      "type": "function"
    },
    {
      "inputs": [
        {
          "internalType": "address",
          "name": "",
          "type": "address"
        }
      ],
      "name": "accumulatedFees",
      "outputs": [
        {
          "internalType": "uint256",
          "name": "",
          "type": "uint256"
        }
      ],
      "stateMutability": "view",
      "type": "function"
    },
    {
      "inputs": [
        {
          "internalType": "bytes4",
          "name": "selector",
          "type": "bytes4"
        }
      ],
      "name": "addAllowedSelector",
      "outputs": [],
      "stateMutability": "nonpayable",
      "type": "function"
    },
    {
      "inputs": [
        {
          "internalType": "address",
          "name": "token",
          "type": "address"
        }
      ],
      "name": "addWhitelistedToken",
      "outputs": [],
      "stateMutability": "nonpayable",
      "type": "function"
    },
    {
      "inputs": [
        {
          "internalType": "address",
          "name": "token",
          "type": "address"
        },
        {
          "internalType": "uint256",
          "name": "usdtAmount",
          "type": "uint256"
        },
        {
          "internalType": "uint256",
          "name": "minOutput",
          "type": "uint256"
        },
        {
          "internalType": "bytes",
          "name": "swapData",
          "type": "bytes"
        }
      ],
      "name": "buyToken",
      "outputs": [],
      "stateMutability": "nonpayable",
      "type": "function"
    },
    {
      "inputs": [],
      "name": "feePercent",
      "outputs": [
        {
          "internalType": "uint256",
          "name": "",
          "type": "uint256"
        }
      ],
      "stateMutability": "view",
      "type": "function"
    },
    {
      "inputs": [
        {
          "internalType": "bytes4",
          "name": "selector",
          "type": "bytes4"
        }
      ],
      "name": "isSelectorAllowed",
      "outputs": [
        {
          "internalType": "bool",
          "name": "",
          "type": "bool"
        }
      ],
      "stateMutability": "view",
      "type": "function"
    },
    {
      "inputs": [
        {
          "internalType": "address",
          "name": "token",
          "type": "address"
        }
      ],
      "name": "isWhitelisted",
      "outputs": [
        {
          "internalType": "bool",
          "name": "",
          "type": "bool"
        }
      ],
      "stateMutability": "view",
      "type": "function"
    },
    {
      "inputs": [],
      "name": "oneInchRouter",
      "outputs": [
        {
          "internalType": "address",
          "name": "",
          "type": "address"
        }
      ],
      "stateMutability": "view",
      "type": "function"
    },
    {
      "inputs": [],
      "name": "owner",
      "outputs": [
        {
          "internalType": "address",
          "name": "",
          "type": "address"
        }
      ],
      "stateMutability": "view",
      "type": "function"
    },
    {
      "inputs": [],
      "name": "pause",
      "outputs": [],
      "stateMutability": "nonpayable",
      "type": "function"
    },
    {
      "inputs": [],
      "name": "paused",
      "outputs": [
        {
          "internalType": "bool",
          "name": "",
          "type": "bool"
        }
      ],
      "stateMutability": "view",
      "type": "function"
    },
    {
      "inputs": [
        {
          "internalType": "address",
          "name": "token",
          "type": "address"
        },
        {
          "internalType": "uint256",
          "name": "amount",
          "type": "uint256"
        }
      ],
      "name": "recoverTokens",
      "outputs": [],
      "stateMutability": "nonpayable",
      "type": "function"
    },
    {
      "inputs": [
        {
          "internalType": "bytes4",
          "name": "selector",
          "type": "bytes4"
        }
      ],
      "name": "removeAllowedSelector",
      "outputs": [],
      "stateMutability": "nonpayable",
      "type": "function"
    },
    {
      "inputs": [
        {
          "internalType": "address",
          "name": "token",
          "type": "address"
        }
      ],
      "name": "removeWhitelistedToken",
      "outputs": [],
      "stateMutability": "nonpayable",
      "type": "function"
    },
    {
      "inputs": [],
      "name": "renounceOwnership",
      "outputs": [],
      "stateMutability": "nonpayable",
      "type": "function"
    },
    {
      "inputs": [
        {
          "internalType": "address",
          "name": "token",
          "type": "address"
        },
        {
          "internalType": "uint256",
          "name": "tokenAmount",
          "type": "uint256"
        },
        {
          "internalType": "uint256",
          "name": "minUsdtOutput",
          "type": "uint256"
        },
        {
          "internalType": "bytes",
          "name": "swapData",
          "type": "bytes"
        }
      ],
      "name": "sellToken",
      "outputs": [],
      "stateMutability": "nonpayable",
      "type": "function"
    },
    {
      "inputs": [
        {
          "internalType": "uint256",
          "name": "fee",
          "type": "uint256"
        }
      ],
      "name": "setFeePercent",
      "outputs": [],
      "stateMutability": "nonpayable",
      "type": "function"
    },
    {
      "inputs": [
        {
          "internalType": "address",
          "name": "_newTreasury",
          "type": "address"
        }
      ],
      "name": "setTreasury",
      "outputs": [],
      "stateMutability": "nonpayable",
      "type": "function"
    },
    {
      "inputs": [
        {
          "internalType": "address",
          "name": "newOwner",
          "type": "address"
        }
      ],
      "name": "transferOwnership",
      "outputs": [],
      "stateMutability": "nonpayable",
      "type": "function"
    },
    {
      "inputs": [],
      "name": "treasury",
      "outputs": [
        {
          "internalType": "address",
          "name": "",
          "type": "address"
        }
      ],
      "stateMutability": "view",
      "type": "function"
    },
    {
      "inputs": [],
      "name": "unpause",
      "outputs": [],
      "stateMutability": "nonpayable",
      "type": "function"
    },
    {
      "inputs": [],
      "name": "usdt",
      "outputs": [
        {
          "internalType": "address",
          "name": "",
          "type": "address"
        }
      ],
      "stateMutability": "view",
      "type": "function"
    },
    {
      "inputs": [],
      "name": "withdrawFees",
      "outputs": [],
      "stateMutability": "nonpayable",
      "type": "function"
    }
  ],
  "bytecode": "0x60c06040523480156200001157600080fd5b5060405162001d7f38038062001d7f83398101604081905262000034916200035f565b33806200005c57604051631e4fbdf760e01b8152600060048201526024015b60405180910390fd5b6200006781620002f2565b5060017f9b779b17422d0df92223018b32b4d1fa46e071723d6817e2486d003becc55f00556001600160a01b038416620000d75760405162461bcd60e51b815260206004820152601060248201526f496e76616c696420747265617375727960801b604482015260640162000053565b6001600160a01b0383166200012f5760405162461bcd60e51b815260206004820152601460248201527f496e76616c696420555344542061646472657373000000000000000000000000604482015260640162000053565b6001600160a01b038216620001875760405162461bcd60e51b815260206004820152601460248201527f496e76616c69642031696e636820726f75746572000000000000000000000000604482015260640162000053565b6101f4811115620001db5760405162461bcd60e51b815260206004820152601360248201527f4665652065786365656473206d6178696d756d00000000000000000000000000604482015260640162000053565b600180546001600160a01b0319166001600160a01b03958616178155928416608052921660a05260029190915560066020527f86d66329c35632cf00be0c46cc35d870a192bc7e55534a205e8b94b79357cb25805460ff1990811683179091557fc05c6e2a1c15047148aee3cd5ee18bd4345e84460d0a27d80624d3eeb57ce80680548216831790557f07e1af114e333b2d73b1146570398f5ed6c82e82938c4f0b67faf73ef413532380548216831790557f5656d26acd55133dcb514378bbcefbcfbaeb62f4e459b984e687ea796674015580548216831790556372ebdef360e11b6000527f5d9455dd8a70c2949ba2b375ad901f478ebf3d341497da5127cb24c6fe26a6f680549091169091179055620003b1565b600080546001600160a01b038381166001600160a01b0319831681178455604051919092169283917f8be0079c531659141344cd1fd0a4f28419497f9722a3daafe3b4186f6b6457e09190a35050565b80516001600160a01b03811681146200035a57600080fd5b919050565b600080600080608085870312156200037657600080fd5b620003818562000342565b9350620003916020860162000342565b9250620003a16040860162000342565b6060959095015193969295505050565b60805160a05161192a6200045560003960008181610319015281816107c80152818161087e01528181610e0701528181610e9d0152818161142001526114ae0152600081816101fa0152818161051601528181610592015281816108050152818161095e01528181610a6201528181610ab501528181610b1101528181610cc701528181610d2c01528181610d7f01528181610de50152610f61015261192a6000f3fe608060405234801561001057600080fd5b50600436106101735760003560e01c80637ce3489b116100de578063ac3af20811610097578063d73792a911610071578063d73792a914610357578063f0f4426014610360578063f2fde38b14610373578063fcf666641461038657600080fd5b8063ac3af20814610314578063bc063e1a1461033b578063d2c1a6b41461034457600080fd5b80637ce3489b146102ab5780637fd6f15c146102be5780638456cb59146102d55780638da5cb5b146102dd578063a8db00d4146102ee578063ab0710181461030157600080fd5b80633af32abf116101305780633af32abf146102475780633f4ba83a14610273578063476343ee1461027b5780635c975abb1461028357806361d027b314610290578063715018a6146102a357600080fd5b8063069c9fae146101785780631c88705d1461018d578063257cac76146101a05780632c30e21a146101e25780632f48ab7d146101f5578063363cb34d14610234575b600080fd5b61018b6101863660046116a7565b6103a6565b005b61018b61019b3660046116d1565b6103f5565b6101cd6101ae3660046116f3565b6001600160e01b03191660009081526006602052604090205460ff1690565b60405190151581526020015b60405180910390f35b61018b6101f03660046116f3565b61041e565b61021c7f000000000000000000000000000000000000000000000000000000000000000081565b6040516001600160a01b0390911681526020016101d9565b61018b6102423660046116d1565b61044b565b6101cd6102553660046116d1565b6001600160a01b031660009081526004602052604090205460ff1690565b61018b6104c5565b61018b610504565b6003546101cd9060ff1681565b60015461021c906001600160a01b031681565b61018b6105d3565b61018b6102b936600461171d565b6105e7565b6102c760025481565b6040519081526020016101d9565b61018b610686565b6000546001600160a01b031661021c565b61018b6102fc366004611736565b6106c8565b61018b61030f3660046116f3565b610bbe565b61021c7f000000000000000000000000000000000000000000000000000000000000000081565b6102c76101f481565b61018b610352366004611736565b610be8565b6102c761271081565b61018b61036e3660046116d1565b6110a3565b61018b6103813660046116d1565b611153565b6102c76103943660046116d1565b60056020526000908152604090205481565b6103ae61118e565b600081116103d75760405162461bcd60e51b81526004016103ce906117ca565b60405180910390fd5b6001546103f1906001600160a01b038481169116836111bb565b5050565b6103fd61118e565b6001600160a01b03166000908152600460205260409020805460ff19169055565b61042661118e565b6001600160e01b0319166000908152600660205260409020805460ff19166001179055565b61045361118e565b6001600160a01b0381166104a15760405162461bcd60e51b8152602060048201526015602482015274496e76616c696420746f6b656e206164647265737360581b60448201526064016103ce565b6001600160a01b03166000908152600460205260409020805460ff19166001179055565b6104cd61118e565b6003805460ff1916905560405133907f5db9ee0a495bf2e6ff9c91a7834c1ba4fdd244a5e8aa4e537bd38aeae4b073aa90600090a2565b61050c61118e565b6001600160a01b037f000000000000000000000000000000000000000000000000000000000000000016600090815260056020526040902054806105885760405162461bcd60e51b81526020600482015260136024820152724e6f206665657320746f20776974686472617760681b60448201526064016103ce565b6001600160a01b037f000000000000000000000000000000000000000000000000000000000000000081166000818152600560205260408120556001546105d09216836111bb565b50565b6105db61118e565b6105e560006111f5565b565b6105ef61118e565b6101f48111156106415760405162461bcd60e51b815260206004820152601860248201527f4665652065786365656473206d6178696d756d2028352529000000000000000060448201526064016103ce565b600280549082905560408051828152602081018490527f528d9479e9f9889a87a3c30c7f7ba537e5e59c4c85a37733b16e57c62df61302910160405180910390a15050565b61068e61118e565b6003805460ff1916600117905560405133907f62e78cea01bee320cd4e420270b5ea74000d11b0c9f74754ebdbfc544b05a25890600090a2565b6106d0611245565b60035460ff16156107185760405162461bcd60e51b815260206004820152601260248201527110dbdb9d1c9858dd081a5cc81c185d5cd95960721b60448201526064016103ce565b6001600160a01b038516600090815260046020526040902054859060ff1661077a5760405162461bcd60e51b8152602060048201526015602482015274151bdad95b881b9bdd081dda1a5d195b1a5cdd1959605a1b60448201526064016103ce565b6000851161079a5760405162461bcd60e51b81526004016103ce906117ca565b6107af6001600160a01b038716333088611273565b6107b983836112af565b6107ed6001600160a01b0387167f000000000000000000000000000000000000000000000000000000000000000087611379565b6040516370a0823160e01b81523060048201526000907f00000000000000000000000000000000000000000000000000000000000000006001600160a01b0316906370a0823190602401602060405180830381865afa158015610854573d6000803e3d6000fd5b505050506040513d601f19601f8201168201806040525081019061087891906117f6565b905060007f00000000000000000000000000000000000000000000000000000000000000006001600160a01b031685856040516108b692919061180f565b6000604051808303816000865af19150503d80600081146108f3576040519150601f19603f3d011682016040523d82523d6000602084013e6108f8565b606091505b505090508061093d5760405162461bcd60e51b81526020600482015260116024820152700c5a5b98da081cddd85c0819985a5b1959607a1b60448201526064016103ce565b61094688611403565b6040516370a0823160e01b81523060048201526000907f00000000000000000000000000000000000000000000000000000000000000006001600160a01b0316906370a0823190602401602060405180830381865afa1580156109ad573d6000803e3d6000fd5b505050506040513d601f19601f820116820180604052508101906109d191906117f6565b905060006109df8483611835565b90506000612710600254836109f4919061184e565b6109fe9190611865565b90506000610a0c8284611835565b905089811015610a525760405162461bcd60e51b81526020600482015260116024820152700a6d8d2e0e0c2ceca40e8dede40d0d2ced607b1b60448201526064016103ce565b8115610b04576001600160a01b037f00000000000000000000000000000000000000000000000000000000000000001660009081526005602052604081208054849290610aa0908490611887565b90915550506040518281526001600160a01b037f000000000000000000000000000000000000000000000000000000000000000016907f06c5efeff5c320943d265dc4e5f1af95ad523555ce0c1957e367dda5514572df9060200160405180910390a25b610b386001600160a01b037f00000000000000000000000000000000000000000000000000000000000000001633836111bb565b604080518c8152602081018390529081018390526001600160a01b038d169033907ff28b12fec161da274c54399738657d50f53663799a86a4c2e8898efdc9228ad1906060015b60405180910390a350505050505050610bb760017f9b779b17422d0df92223018b32b4d1fa46e071723d6817e2486d003becc55f0055565b5050505050565b610bc661118e565b6001600160e01b0319166000908152600660205260409020805460ff19169055565b610bf0611245565b60035460ff1615610c385760405162461bcd60e51b815260206004820152601260248201527110dbdb9d1c9858dd081a5cc81c185d5cd95960721b60448201526064016103ce565b6001600160a01b038516600090815260046020526040902054859060ff16610c9a5760405162461bcd60e51b8152602060048201526015602482015274151bdad95b881b9bdd081dda1a5d195b1a5cdd1959605a1b60448201526064016103ce565b60008511610cba5760405162461bcd60e51b81526004016103ce906117ca565b610cef6001600160a01b037f000000000000000000000000000000000000000000000000000000000000000016333088611273565b600061271060025487610d02919061184e565b610d0c9190611865565b90506000610d1a8288611835565b90508115610dce576001600160a01b037f00000000000000000000000000000000000000000000000000000000000000001660009081526005602052604081208054849290610d6a908490611887565b90915550506040518281526001600160a01b037f000000000000000000000000000000000000000000000000000000000000000016907f06c5efeff5c320943d265dc4e5f1af95ad523555ce0c1957e367dda5514572df9060200160405180910390a25b610dd885856112af565b610e2c6001600160a01b037f0000000000000000000000000000000000000000000000000000000000000000167f000000000000000000000000000000000000000000000000000000000000000083611379565b6040516370a0823160e01b81523060048201526000906001600160a01b038a16906370a0823190602401602060405180830381865afa158015610e73573d6000803e3d6000fd5b505050506040513d601f19601f82011682018060405250810190610e9791906117f6565b905060007f00000000000000000000000000000000000000000000000000000000000000006001600160a01b03168787604051610ed592919061180f565b6000604051808303816000865af19150503d8060008114610f12576040519150601f19603f3d011682016040523d82523d6000602084013e610f17565b606091505b5050905080610f5c5760405162461bcd60e51b81526020600482015260116024820152700c5a5b98da081cddd85c0819985a5b1959607a1b60448201526064016103ce565b610f857f0000000000000000000000000000000000000000000000000000000000000000611403565b6040516370a0823160e01b81523060048201526000906001600160a01b038c16906370a0823190602401602060405180830381865afa158015610fcc573d6000803e3d6000fd5b505050506040513d601f19601f82011682018060405250810190610ff091906117f6565b90506000610ffe8483611835565b9050898110156110445760405162461bcd60e51b81526020600482015260116024820152700a6d8d2e0e0c2ceca40e8dede40d0d2ced607b1b60448201526064016103ce565b6110586001600160a01b038d1633836111bb565b604080518c8152602081018390529081018790526001600160a01b038d169033907f77eb323217a4770c84b5f7f4076d557a6d1166bf8c746483d2a981d9c678e54d90606001610b7f565b6110ab61118e565b6001600160a01b0381166111015760405162461bcd60e51b815260206004820152601860248201527f496e76616c69642074726561737572792061646472657373000000000000000060448201526064016103ce565b600180546001600160a01b038381166001600160a01b0319831681179093556040519116919082907f4ab5be82436d353e61ca18726e984e561f5c1cc7c6d38b29d2553c790434705a90600090a35050565b61115b61118e565b6001600160a01b03811661118557604051631e4fbdf760e01b8152600060048201526024016103ce565b6105d0816111f5565b6000546001600160a01b031633146105e55760405163118cdaa760e01b81523360048201526024016103ce565b6111c883838360016114d4565b6111f057604051635274afe760e01b81526001600160a01b03841660048201526024016103ce565b505050565b600080546001600160a01b038381166001600160a01b0319831681178455604051919092169283917f8be0079c531659141344cd1fd0a4f28419497f9722a3daafe3b4186f6b6457e09190a35050565b61124d61153a565b60027f9b779b17422d0df92223018b32b4d1fa46e071723d6817e2486d003becc55f0055565b61128184848484600161157c565b6112a957604051635274afe760e01b81526001600160a01b03851660048201526024016103ce565b50505050565b60048110156112f55760405162461bcd60e51b815260206004820152601260248201527114ddd85c11185d18481d1bdbc81cda1bdc9d60721b60448201526064016103ce565b6000611304600482848661189a565b61130d916118c4565b6001600160e01b0319811660009081526006602052604090205490915060ff166111f05760405162461bcd60e51b815260206004820152601960248201527f537761702066756e6374696f6e206e6f7420616c6c6f7765640000000000000060448201526064016103ce565b604051636eb1769f60e11b81523060048201526001600160a01b0383811660248301526000919085169063dd62ed3e90604401602060405180830381865afa1580156113c9573d6000803e3d6000fd5b505050506040513d601f19601f820116820180604052508101906113ed91906117f6565b90506112a984846113fe8585611887565b6115ee565b604051636eb1769f60e11b81523060048201526001600160a01b037f0000000000000000000000000000000000000000000000000000000000000000811660248301526000919083169063dd62ed3e90604401602060405180830381865afa158015611473573d6000803e3d6000fd5b505050506040513d601f19601f8201168201806040525081019061149791906117f6565b905080156103f1576103f16001600160a01b0383167f000000000000000000000000000000000000000000000000000000000000000060006115ee565b60405163a9059cbb60e01b60008181526001600160a01b038616600452602485905291602083604481808b5af19250600160005114831661152e578383151615611521573d6000823e3d81fd5b6000873b113d1516831692505b60405250949350505050565b7f9b779b17422d0df92223018b32b4d1fa46e071723d6817e2486d003becc55f00546002036105e557604051633ee5aeb560e01b815260040160405180910390fd5b6040516323b872dd60e01b60008181526001600160a01b038781166004528616602452604485905291602083606481808c5af1925060016000511483166115dc5783831516156115cf573d6000823e3d81fd5b6000883b113d1516831692505b60405250600060605295945050505050565b6115fb838383600061163e565b6111f05761160d83836000600161163e565b61163557604051635274afe760e01b81526001600160a01b03841660048201526024016103ce565b6111c883838360015b60405163095ea7b360e01b60008181526001600160a01b038616600452602485905291602083604481808b5af19250600160005114831661152e578383151615611521573d6000823e3d81fd5b80356001600160a01b03811681146116a257600080fd5b919050565b600080604083850312156116ba57600080fd5b6116c38361168b565b946020939093013593505050565b6000602082840312156116e357600080fd5b6116ec8261168b565b9392505050565b60006020828403121561170557600080fd5b81356001600160e01b0319811681146116ec57600080fd5b60006020828403121561172f57600080fd5b5035919050565b60008060008060006080868803121561174e57600080fd5b6117578661168b565b94506020860135935060408601359250606086013567ffffffffffffffff8082111561178257600080fd5b818801915088601f83011261179657600080fd5b8135818111156117a557600080fd5b8960208285010111156117b757600080fd5b9699959850939650602001949392505050565b6020808252601290820152710416d6f756e74206d757374206265203e20360741b604082015260600190565b60006020828403121561180857600080fd5b5051919050565b8183823760009101908152919050565b634e487b7160e01b600052601160045260246000fd5b818103818111156118485761184861181f565b92915050565b80820281158282048414176118485761184861181f565b60008261188257634e487b7160e01b600052601260045260246000fd5b500490565b808201808211156118485761184861181f565b600080858511156118aa57600080fd5b838611156118b757600080fd5b5050820193919092039150565b6001600160e01b031981358181169160048510156118ec5780818660040360031b1b83161692505b50509291505056fea264697066735822122057ab417c4a88555f5af6f2c04d9821278840dc71550c2761019220f10ebe3a5564736f6c63430008140033",
  "linkReferences": {},
  "deployedLinkReferences": {}
}